{
  "_format": "hh-sol-artifact-1",
  "contractName": "StampCoinNFT",
  "sourceName": "contracts/StampCoinNFT.sol",
  "abi": [
    {
      "inputs": [
        {
          "internalType": "address",
          "name": "_royaltyReceiver",
          "type": "address"
        }
      ],
      "stateMutability": "nonpayable",
      "type": "constructor"
    },
    {
      "inputs": [],
      "name": "AccessControlBadConfirmation",
      "type": "error"
    },
    {
      "inputs": [
        {
          "internalType": "address",
          "name": "account",
          "type": "address"
        },
        {
          "internalType": "bytes32",
          "name": "neededRole",
          "type": "bytes32"
        }
      ],
      "name": "AccessControlUnauthorizedAccount",
      "type": "error"
    },
    {
      "inputs": [
        {
          "internalType": "address",
          "name": "sender",
          "type": "address"
        },
        {
          "internalType": "uint256",
          "name": "tokenId",
          "type": "uint256"
        },
        {
          "internalType": "address",
          "name": "owner",
          "type": "address"
        }
      ],
      "name": "ERC721IncorrectOwner",
      "type": "error"
    },
    {
      "inputs": [
        {
          "internalType": "address",
          "name": "operator",
          "type": "address"
        },
        {
          "internalType": "uint256",
          "name": "tokenId",
          "type": "uint256"
        }
      ],
      "name": "ERC721InsufficientApproval",
      "type": "error"
    },
    {
      "inputs": [
        {
          "internalType": "address",
          "name": "approver",
          "type": "address"
        }
      ],
      "name": "ERC721InvalidApprover",
      "type": "error"
    },
    {
      "inputs": [
        {
          "internalType": "address",
          "name": "operator",
          "type": "address"
        }
      ],
      "name": "ERC721InvalidOperator",
      "type": "error"
    },
    {
      "inputs": [
        {
          "internalType": "address",
          "name": "owner",
          "type": "address"
        }
      ],
      "name": "ERC721InvalidOwner",
      "type": "error"
    },
    {
      "inputs": [
        {
          "internalType": "address",
          "name": "receiver",
          "type": "address"
        }
      ],
      "name": "ERC721InvalidReceiver",
      "type": "error"
    },
    {
      "inputs": [
        {
          "internalType": "address",
          "name": "sender",
          "type": "address"
        }
      ],
      "name": "ERC721InvalidSender",
      "type": "error"
    },
    {
      "inputs": [
        {
          "internalType": "uint256",
          "name": "tokenId",
          "type": "uint256"
        }
      ],
      "name": "ERC721NonexistentToken",
      "type": "error"
    },
    {
      "anonymous": false,
      "inputs": [
        {
          "indexed": true,
          "internalType": "address",
          "name": "owner",
          "type": "address"
        },
        {
          "indexed": true,
          "internalType": "address",
          "name": "approved",
          "type": "address"
        },
        {
          "indexed": true,
          "internalType": "uint256",
          "name": "tokenId",
          "type": "uint256"
        }
      ],
      "name": "Approval",
      "type": "event"
    },
    {
      "anonymous": false,
      "inputs": [
        {
          "indexed": true,
          "internalType": "address",
          "name": "owner",
          "type": "address"
        },
        {
          "indexed": true,
          "internalType": "address",
          "name": "operator",
          "type": "address"
        },
        {
          "indexed": false,
          "internalType": "bool",
          "name": "approved",
          "type": "bool"
        }
      ],
      "name": "ApprovalForAll",
      "type": "event"
    },
    {
      "anonymous": false,
      "inputs": [
        {
          "indexed": false,
          "internalType": "uint256",
          "name": "_fromTokenId",
          "type": "uint256"
        },
        {
          "indexed": false,
          "internalType": "uint256",
          "name": "_toTokenId",
          "type": "uint256"
        }
      ],
      "name": "BatchMetadataUpdate",
      "type": "event"
    },
    {
      "anonymous": false,
      "inputs": [
        {
          "indexed": false,
          "internalType": "uint256",
          "name": "_tokenId",
          "type": "uint256"
        }
      ],
      "name": "MetadataUpdate",
      "type": "event"
    },
    {
      "anonymous": false,
      "inputs": [
        {
          "indexed": true,
          "internalType": "bytes32",
          "name": "role",
          "type": "bytes32"
        },
        {
          "indexed": true,
          "internalType": "bytes32",
          "name": "previousAdminRole",
          "type": "bytes32"
        },
        {
          "indexed": true,
          "internalType": "bytes32",
          "name": "newAdminRole",
          "type": "bytes32"
        }
      ],
      "name": "RoleAdminChanged",
      "type": "event"
    },
    {
      "anonymous": false,
      "inputs": [
        {
          "indexed": true,
          "internalType": "bytes32",
          "name": "role",
          "type": "bytes32"
        },
        {
          "indexed": true,
          "internalType": "address",
          "name": "account",
          "type": "address"
        },
        {
          "indexed": true,
          "internalType": "address",
          "name": "sender",
          "type": "address"
        }
      ],
      "name": "RoleGranted",
      "type": "event"
    },
    {
      "anonymous": false,
      "inputs": [
        {
          "indexed": true,
          "internalType": "bytes32",
          "name": "role",
          "type": "bytes32"
        },
        {
          "indexed": true,
          "internalType": "address",
          "name": "account",
          "type": "address"
        },
        {
          "indexed": true,
          "internalType": "address",
          "name": "sender",
          "type": "address"
        }
      ],
      "name": "RoleRevoked",
      "type": "event"
    },
    {
      "anonymous": false,
      "inputs": [
        {
          "indexed": true,
          "internalType": "uint256",
          "name": "tokenId",
          "type": "uint256"
        },
        {
          "indexed": true,
          "internalType": "address",
          "name": "authenticator",
          "type": "address"
        },
        {
          "indexed": false,
          "internalType": "uint8",
          "name": "confidenceScore",
          "type": "uint8"
        },
        {
          "indexed": false,
          "internalType": "string",
          "name": "certificateUri",
          "type": "string"
        }
      ],
      "name": "StampAuthenticated",
      "type": "event"
    },
    {
      "anonymous": false,
      "inputs": [
        {
          "indexed": true,
          "internalType": "uint256",
          "name": "tokenId",
          "type": "uint256"
        },
        {
          "indexed": true,
          "internalType": "address",
          "name": "to",
          "type": "address"
        },
        {
          "indexed": false,
          "internalType": "string",
          "name": "physicalStampId",
          "type": "string"
        },
        {
          "indexed": false,
          "internalType": "string",
          "name": "uri",
          "type": "string"
        }
      ],
      "name": "StampMinted",
      "type": "event"
    },
    {
      "anonymous": false,
      "inputs": [
        {
          "indexed": true,
          "internalType": "address",
          "name": "from",
          "type": "address"
        },
        {
          "indexed": true,
          "internalType": "address",
          "name": "to",
          "type": "address"
        },
        {
          "indexed": true,
          "internalType": "uint256",
          "name": "tokenId",
          "type": "uint256"
        }
      ],
      "name": "Transfer",
      "type": "event"
    },
    {
      "inputs": [],
      "name": "AUTHENTICATOR_ROLE",
      "outputs": [
        {
          "internalType": "bytes32",
          "name": "",
          "type": "bytes32"
        }
      ],
      "stateMutability": "view",
      "type": "function"
    },
    {
      "inputs": [],
      "name": "DEFAULT_ADMIN_ROLE",
      "outputs": [
        {
          "internalType": "bytes32",
          "name": "",
          "type": "bytes32"
        }
      ],
      "stateMutability": "view",
      "type": "function"
    },
    {
      "inputs": [],
      "name": "MINTER_ROLE",
      "outputs": [
        {
          "internalType": "bytes32",
          "name": "",
          "type": "bytes32"
        }
      ],
      "stateMutability": "view",
      "type": "function"
    },
    {
      "inputs": [],
      "name": "ROYALTY_FEE",
      "outputs": [
        {
          "internalType": "uint96",
          "name": "",
          "type": "uint96"
        }
      ],
      "stateMutability": "view",
      "type": "function"
    },
    {
      "inputs": [
        {
          "internalType": "address",
          "name": "to",
          "type": "address"
        },
        {
          "internalType": "uint256",
          "name": "tokenId",
          "type": "uint256"
        }
      ],
      "name": "approve",
      "outputs": [],
      "stateMutability": "nonpayable",
      "type": "function"
    },
    {
      "inputs": [
        {
          "internalType": "uint256",
          "name": "tokenId",
          "type": "uint256"
        },
        {
          "internalType": "uint8",
          "name": "confidenceScore",
          "type": "uint8"
        },
        {
          "internalType": "string",
          "name": "certificateUri",
          "type": "string"
        }
      ],
      "name": "authenticateStamp",
      "outputs": [],
      "stateMutability": "nonpayable",
      "type": "function"
    },
    {
      "inputs": [
        {
          "internalType": "address",
          "name": "owner",
          "type": "address"
        }
      ],
      "name": "balanceOf",
      "outputs": [
        {
          "internalType": "uint256",
          "name": "",
          "type": "uint256"
        }
      ],
      "stateMutability": "view",
      "type": "function"
    },
    {
      "inputs": [
        {
          "internalType": "uint256",
          "name": "tokenId",
          "type": "uint256"
        }
      ],
      "name": "burn",
      "outputs": [],
      "stateMutability": "nonpayable",
      "type": "function"
    },
    {
      "inputs": [
        {
          "internalType": "uint256",
          "name": "tokenId",
          "type": "uint256"
        }
      ],
      "name": "getApproved",
      "outputs": [
        {
          "internalType": "address",
          "name": "",
          "type": "address"
        }
      ],
      "stateMutability": "view",
      "type": "function"
    },
    {
      "inputs": [
        {
          "internalType": "bytes32",
          "name": "role",
          "type": "bytes32"
        }
      ],
      "name": "getRoleAdmin",
      "outputs": [
        {
          "internalType": "bytes32",
          "name": "",
          "type": "bytes32"
        }
      ],
      "stateMutability": "view",
      "type": "function"
    },
    {
      "inputs": [
        {
          "internalType": "bytes32",
          "name": "role",
          "type": "bytes32"
        },
        {
          "internalType": "address",
          "name": "account",
          "type": "address"
        }
      ],
      "name": "grantRole",
      "outputs": [],
      "stateMutability": "nonpayable",
      "type": "function"
    },
    {
      "inputs": [
        {
          "internalType": "bytes32",
          "name": "role",
          "type": "bytes32"
        },
        {
          "internalType": "address",
          "name": "account",
          "type": "address"
        }
      ],
      "name": "hasRole",
      "outputs": [
        {
          "internalType": "bool",
          "name": "",
          "type": "bool"
        }
      ],
      "stateMutability": "view",
      "type": "function"
    },
    {
      "inputs": [
        {
          "internalType": "address",
          "name": "owner",
          "type": "address"
        },
        {
          "internalType": "address",
          "name": "operator",
          "type": "address"
        }
      ],
      "name": "isApprovedForAll",
      "outputs": [
        {
          "internalType": "bool",
          "name": "",
          "type": "bool"
        }
      ],
      "stateMutability": "view",
      "type": "function"
    },
    {
      "inputs": [
        {
          "internalType": "address",
          "name": "to",
          "type": "address"
        },
        {
          "internalType": "string",
          "name": "uri",
          "type": "string"
        },
        {
          "internalType": "string",
          "name": "physicalStampId",
          "type": "string"
        }
      ],
      "name": "mintStamp",
      "outputs": [
        {
          "internalType": "uint256",
          "name": "",
          "type": "uint256"
        }
      ],
      "stateMutability": "nonpayable",
      "type": "function"
    },
    {
      "inputs": [],
      "name": "name",
      "outputs": [
        {
          "internalType": "string",
          "name": "",
          "type": "string"
        }
      ],
      "stateMutability": "view",
      "type": "function"
    },
    {
      "inputs": [
        {
          "internalType": "uint256",
          "name": "tokenId",
          "type": "uint256"
        }
      ],
      "name": "ownerOf",
      "outputs": [
        {
          "internalType": "address",
          "name": "",
          "type": "address"
        }
      ],
      "stateMutability": "view",
      "type": "function"
    },
    {
      "inputs": [
        {
          "internalType": "string",
          "name": "",
          "type": "string"
        }
      ],
      "name": "physicalStampToToken",
      "outputs": [
        {
          "internalType": "uint256",
          "name": "",
          "type": "uint256"
        }
      ],
      "stateMutability": "view",
      "type": "function"
    },
    {
      "inputs": [
        {
          "internalType": "bytes32",
          "name": "role",
          "type": "bytes32"
        },
        {
          "internalType": "address",
          "name": "callerConfirmation",
          "type": "address"
        }
      ],
      "name": "renounceRole",
      "outputs": [],
      "stateMutability": "nonpayable",
      "type": "function"
    },
    {
      "inputs": [
        {
          "internalType": "bytes32",
          "name": "role",
          "type": "bytes32"
        },
        {
          "internalType": "address",
          "name": "account",
          "type": "address"
        }
      ],
      "name": "revokeRole",
      "outputs": [],
      "stateMutability": "nonpayable",
      "type": "function"
    },
    {
      "inputs": [
        {
          "internalType": "uint256",
          "name": "",
          "type": "uint256"
        },
        {
          "internalType": "uint256",
          "name": "salePrice",
          "type": "uint256"
        }
      ],
      "name": "royaltyInfo",
      "outputs": [
        {
          "internalType": "address",
          "name": "",
          "type": "address"
        },
        {
          "internalType": "uint256",
          "name": "",
          "type": "uint256"
        }
      ],
      "stateMutability": "view",
      "type": "function"
    },
    {
      "inputs": [],
      "name": "royaltyReceiver",
      "outputs": [
        {
          "internalType": "address",
          "name": "",
          "type": "address"
        }
      ],
      "stateMutability": "view",
      "type": "function"
    },
    {
      "inputs": [
        {
          "internalType": "address",
          "name": "from",
          "type": "address"
        },
        {
          "internalType": "address",
          "name": "to",
          "type": "address"
        },
        {
          "internalType": "uint256",
          "name": "tokenId",
          "type": "uint256"
        }
      ],
      "name": "safeTransferFrom",
      "outputs": [],
      "stateMutability": "nonpayable",
      "type": "function"
    },
    {
      "inputs": [
        {
          "internalType": "address",
          "name": "from",
          "type": "address"
        },
        {
          "internalType": "address",
          "name": "to",
          "type": "address"
        },
        {
          "internalType": "uint256",
          "name": "tokenId",
          "type": "uint256"
        },
        {
          "internalType": "bytes",
          "name": "data",
          "type": "bytes"
        }
      ],
      "name": "safeTransferFrom",
      "outputs": [],
      "stateMutability": "nonpayable",
      "type": "function"
    },
    {
      "inputs": [
        {
          "internalType": "address",
          "name": "operator",
          "type": "address"
        },
        {
          "internalType": "bool",
          "name": "approved",
          "type": "bool"
        }
      ],
      "name": "setApprovalForAll",
      "outputs": [],
      "stateMutability": "nonpayable",
      "type": "function"
    },
    {
      "inputs": [
        {
          "internalType": "uint256",
          "name": "",
          "type": "uint256"
        }
      ],
      "name": "stampData",
      "outputs": [
        {
          "internalType": "string",
          "name": "physicalStampId",
          "type": "string"
        },
        {
          "internalType": "bool",
          "name": "isAuthenticated",
          "type": "bool"
        },
        {
          "internalType": "address",
          "name": "authenticatedBy",
          "type": "address"
        },
        {
          "internalType": "uint256",
          "name": "authenticatedAt",
          "type": "uint256"
        },
        {
          "internalType": "uint8",
          "name": "confidenceScore",
          "type": "uint8"
        },
        {
          "internalType": "string",
          "name": "certificateUri",
          "type": "string"
        }
      ],
      "stateMutability": "view",
      "type": "function"
    },
    {
      "inputs": [
        {
          "internalType": "bytes4",
          "name": "interfaceId",
          "type": "bytes4"
        }
      ],
      "name": "supportsInterface",
      "outputs": [
        {
          "internalType": "bool",
          "name": "",
          "type": "bool"
        }
      ],
      "stateMutability": "view",
      "type": "function"
    },
    {
      "inputs": [],
      "name": "symbol",
      "outputs": [
        {
          "internalType": "string",
          "name": "",
          "type": "string"
        }
      ],
      "stateMutability": "view",
      "type": "function"
    },
    {
      "inputs": [
        {
          "internalType": "uint256",
          "name": "tokenId",
          "type": "uint256"
        }
      ],
      "name": "tokenURI",
      "outputs": [
        {
          "internalType": "string",
          "name": "",
          "type": "string"
        }
      ],
      "stateMutability": "view",
      "type": "function"
    },
    {
      "inputs": [
        {
          "internalType": "address",
          "name": "from",
          "type": "address"
        },
        {
          "internalType": "address",
          "name": "to",
          "type": "address"
        },
        {
          "internalType": "uint256",
          "name": "tokenId",
          "type": "uint256"
        }
      ],
      "name": "transferFrom",
      "outputs": [],
      "stateMutability": "nonpayable",
      "type": "function"
    }
  ],
  "bytecode": "0x60806040523480156200001157600080fd5b50604051620022bc380380620022bc8339810160408190526200003491620001da565b6040518060400160405280600981526020016829ba30b6b821b7b4b760b91b8152506040518060400160405280600581526020016405354414d560dc1b8152508160009081620000859190620002b1565b506001620000948282620002b1565b50620000a69150600090503362000127565b50620000d37f9f2df0fed2c77648de5860a4cc508cd0818c85b8b8a1ab4ceeef8d981c8956a63362000127565b50620001007f190acb99f29d9641c9ad47655049f2d7c78fcbc837d62e7981d28c871f7220813362000127565b50600980546001600160a01b0319166001600160a01b03929092169190911790556200037d565b60008281526007602090815260408083206001600160a01b038516845290915281205460ff16620001d05760008381526007602090815260408083206001600160a01b03861684529091529020805460ff19166001179055620001873390565b6001600160a01b0316826001600160a01b0316847f2f8788117e7eff1d82e926ec794901d17c78024a50270940304540a733656f0d60405160405180910390a4506001620001d4565b5060005b92915050565b600060208284031215620001ed57600080fd5b81516001600160a01b03811681146200020557600080fd5b9392505050565b634e487b7160e01b600052604160045260246000fd5b600181811c908216806200023757607f821691505b6020821081036200025857634e487b7160e01b600052602260045260246000fd5b50919050565b601f821115620002ac57600081815260208120601f850160051c81016020861015620002875750805b601f850160051c820191505b81811015620002a85782815560010162000293565b5050505b505050565b81516001600160401b03811115620002cd57620002cd6200020c565b620002e581620002de845462000222565b846200025e565b602080601f8311600181146200031d5760008415620003045750858301515b600019600386901b1c1916600185901b178555620002a8565b600085815260208120601f198616915b828110156200034e578886015182559484019460019091019084016200032d565b50858210156200036d5787850151600019600388901b60f8161c191681555b5050505050600190811b01905550565b611f2f806200038d6000396000f3fe608060405234801561001057600080fd5b50600436106101cf5760003560e01c806370a0823111610104578063b65c5e8d116100a2578063d539139311610071578063d539139314610440578063d547741f14610467578063e920e52b1461047a578063e985e9c5146104a557600080fd5b8063b65c5e8d146103e0578063b88d4fde14610407578063bc3112851461041a578063c87b56dd1461042d57600080fd5b806395d89b41116100de57806395d89b41146103aa5780639fbc8713146103b2578063a217fddf146103c5578063a22cb465146103cd57600080fd5b806370a082311461035f57806384df3b8f1461037257806391d148541461039757600080fd5b80632a55205a1161017157806336568abe1161014b57806336568abe1461031357806342842e0e1461032657806342966c68146103395780636352211e1461034c57600080fd5b80632a55205a146102a85780632f2ff15d146102da578063335477fc146102ed57600080fd5b8063095ea7b3116101ad578063095ea7b31461023c57806323b872dd14610251578063248a9ca3146102645780632659d3341461029557600080fd5b806301ffc9a7146101d457806306fdde03146101fc578063081812fc14610211575b600080fd5b6101e76101e23660046117f9565b6104b8565b60405190151581526020015b60405180910390f35b6102046104c9565b6040516101f39190611866565b61022461021f366004611879565b61055b565b6040516001600160a01b0390911681526020016101f3565b61024f61024a3660046118ae565b610584565b005b61024f61025f3660046118d8565b610593565b610287610272366004611879565b60009081526007602052604090206001015490565b6040519081526020016101f3565b6102876102a33660046119c0565b610623565b6102bb6102b6366004611a34565b610875565b604080516001600160a01b0390931683526020830191909152016101f3565b61024f6102e8366004611a56565b6108aa565b6102f66101f481565b6040516bffffffffffffffffffffffff90911681526020016101f3565b61024f610321366004611a56565b6108cf565b61024f6103343660046118d8565b610907565b61024f610347366004611879565b610922565b61022461035a366004611879565b61092e565b61028761036d366004611a82565b610939565b610385610380366004611879565b610981565b6040516101f396959493929190611a9d565b6101e76103a5366004611a56565b610ada565b610204610b05565b600954610224906001600160a01b031681565b610287600081565b61024f6103db366004611af6565b610b14565b6102877f190acb99f29d9641c9ad47655049f2d7c78fcbc837d62e7981d28c871f72208181565b61024f610415366004611b32565b610b1f565b61024f610428366004611bae565b610b37565b61020461043b366004611879565b610cf6565b6102877f9f2df0fed2c77648de5860a4cc508cd0818c85b8b8a1ab4ceeef8d981c8956a681565b61024f610475366004611a56565b610d01565b610287610488366004611c03565b8051602081830181018051600b8252928201919093012091525481565b6101e76104b3366004611c38565b610d26565b60006104c382610d54565b92915050565b6060600080546104d890611c62565b80601f016020809104026020016040519081016040528092919081815260200182805461050490611c62565b80156105515780601f1061052657610100808354040283529160200191610551565b820191906000526020600020905b81548152906001019060200180831161053457829003601f168201915b5050505050905090565b600061056682610d79565b506000828152600460205260409020546001600160a01b03166104c3565b61058f828233610db2565b5050565b6001600160a01b0382166105c257604051633250574960e11b8152600060048201526024015b60405180910390fd5b60006105cf838333610dbf565b9050836001600160a01b0316816001600160a01b03161461061d576040516364283d7b60e01b81526001600160a01b03808616600483015260248201849052821660448201526064016105b9565b50505050565b60007f9f2df0fed2c77648de5860a4cc508cd0818c85b8b8a1ab4ceeef8d981c8956a661064f81610eb8565b60008351116106975760405162461bcd60e51b8152602060048201526014602482015273141a1e5cda58d85b081251081c995c5d5a5c995960621b60448201526064016105b9565b600b836040516106a79190611c9c565b9081526020016040518091039020546000146107055760405162461bcd60e51b815260206004820152601d60248201527f506879736963616c207374616d7020616c7265616479206d696e74656400000060448201526064016105b9565b600880546000918261071683611cce565b9190505590506107268682610ec5565b6107308186610edf565b6040805160c0810182528581526000602080830182905282840182905260608301829052608083018290528351808201855282815260a0840152848252600a905291909120815181906107839082611d2d565b50602082015160018201805460408501516001600160a01b031661010002610100600160a81b0319931515939093166001600160a81b03199091161791909117905560608201516002820155608082015160038201805460ff9290921660ff199290921691909117905560a082015160048201906108019082611d2d565b5090505080600b856040516108169190611c9c565b908152602001604051809103902081905550856001600160a01b0316817f01a4cd229927e2f5ae32245314e6c1fddfaf0f2ba8d67e555b004c0da78b82668688604051610864929190611ded565b60405180910390a395945050505050565b60095460009081906001600160a01b03166127106108956101f486611e1b565b61089f9190611e32565b915091509250929050565b6000828152600760205260409020600101546108c581610eb8565b61061d8383610f2f565b6001600160a01b03811633146108f85760405163334bd91960e11b815260040160405180910390fd5b6109028282610fc3565b505050565b61090283838360405180602001604052806000815250610b1f565b61058f60008233610dbf565b60006104c382610d79565b60006001600160a01b038216610965576040516322718ad960e21b8152600060048201526024016105b9565b506001600160a01b031660009081526003602052604090205490565b600a6020526000908152604090208054819061099c90611c62565b80601f01602080910402602001604051908101604052809291908181526020018280546109c890611c62565b8015610a155780601f106109ea57610100808354040283529160200191610a15565b820191906000526020600020905b8154815290600101906020018083116109f857829003601f168201915b50505050600183015460028401546003850154600486018054959660ff808616976101009096046001600160a01b0316965093949390921692610a5790611c62565b80601f0160208091040260200160405190810160405280929190818152602001828054610a8390611c62565b8015610ad05780601f10610aa557610100808354040283529160200191610ad0565b820191906000526020600020905b815481529060010190602001808311610ab357829003601f168201915b5050505050905086565b60009182526007602090815260408084206001600160a01b0393909316845291905290205460ff1690565b6060600180546104d890611c62565b61058f338383611030565b610b2a848484610593565b61061d33858585856110cf565b7f190acb99f29d9641c9ad47655049f2d7c78fcbc837d62e7981d28c871f722081610b6181610eb8565b6000610b6c8561092e565b6001600160a01b031603610bb95760405162461bcd60e51b8152602060048201526014602482015273151bdad95b88191bd95cc81b9bdd08195e1a5cdd60621b60448201526064016105b9565b60648360ff161115610c035760405162461bcd60e51b8152602060048201526013602482015272053636f7265206d75737420626520302d31303606c1b60448201526064016105b9565b6000848152600a602052604090206001015460ff1615610c5d5760405162461bcd60e51b8152602060048201526015602482015274105b1c9958591e48185d5d1a195b9d1a58d85d1959605a1b60448201526064016105b9565b6000848152600a60205260409020600180820180546001600160a81b031916610100330217909117905542600282015560038101805460ff191660ff8616179055600401610cab8382611d2d565b50336001600160a01b0316847f4a420e8fd2d769cd1558c2862312ff86ebd85cb3ae208c9ed60590755601a29b8585604051610ce8929190611e54565b60405180910390a350505050565b60606104c3826111fa565b600082815260076020526040902060010154610d1c81610eb8565b61061d8383610fc3565b6001600160a01b03918216600090815260056020908152604080832093909416825291909152205460ff1690565b60006001600160e01b03198216637965db0b60e01b14806104c357506104c38261130b565b6000818152600260205260408120546001600160a01b0316806104c357604051637e27328960e01b8152600481018490526024016105b9565b6109028383836001611330565b6000828152600260205260408120546001600160a01b0390811690831615610dec57610dec818486611436565b6001600160a01b03811615610e2a57610e09600085600080611330565b6001600160a01b038116600090815260036020526040902080546000190190555b6001600160a01b03851615610e59576001600160a01b0385166000908152600360205260409020805460010190555b60008481526002602052604080822080546001600160a01b0319166001600160a01b0389811691821790925591518793918516917fddf252ad1be2c89b69c2b068fc378daa952ba7f163c4a11628f55a4df523b3ef91a4949350505050565b610ec2813361149a565b50565b61058f8282604051806020016040528060008152506114d3565b6000828152600660205260409020610ef78282611d2d565b506040518281527ff8e1a15aba9398e019f0b49df1a4fde98ee17ae345cb5f6b5e2c27f5033e8ce79060200160405180910390a15050565b6000610f3b8383610ada565b610fbb5760008381526007602090815260408083206001600160a01b03861684529091529020805460ff19166001179055610f733390565b6001600160a01b0316826001600160a01b0316847f2f8788117e7eff1d82e926ec794901d17c78024a50270940304540a733656f0d60405160405180910390a45060016104c3565b5060006104c3565b6000610fcf8383610ada565b15610fbb5760008381526007602090815260408083206001600160a01b0386168085529252808320805460ff1916905551339286917ff6391f5c32d9c69d2a47ea670b442974b53935d1edc7fd64eb21e047a839171b9190a45060016104c3565b6001600160a01b03821661106257604051630b61174360e31b81526001600160a01b03831660048201526024016105b9565b6001600160a01b03838116600081815260056020908152604080832094871680845294825291829020805460ff191686151590811790915591519182527f17307eab39ab6107e8899845ad3d59bd9653f200f220920489ca2b5937696c31910160405180910390a3505050565b6001600160a01b0383163b156111f357604051630a85bd0160e11b81526001600160a01b0384169063150b7a0290611111908890889087908790600401611e70565b6020604051808303816000875af192505050801561114c575060408051601f3d908101601f1916820190925261114991810190611ead565b60015b6111b5573d80801561117a576040519150601f19603f3d011682016040523d82523d6000602084013e61117f565b606091505b5080516000036111ad57604051633250574960e11b81526001600160a01b03851660048201526024016105b9565b805160208201fd5b6001600160e01b03198116630a85bd0160e11b146111f157604051633250574960e11b81526001600160a01b03851660048201526024016105b9565b505b5050505050565b606061120582610d79565b506000828152600660205260408120805461121f90611c62565b80601f016020809104026020016040519081016040528092919081815260200182805461124b90611c62565b80156112985780601f1061126d57610100808354040283529160200191611298565b820191906000526020600020905b81548152906001019060200180831161127b57829003601f168201915b5050505050905060006112b660408051602081019091526000815290565b905080516000036112c8575092915050565b8151156112fa5780826040516020016112e2929190611eca565b60405160208183030381529060405292505050919050565b611303846114eb565b949350505050565b60006001600160e01b03198216632483248360e11b14806104c357506104c382611560565b808061134457506001600160a01b03821615155b1561140657600061135484610d79565b90506001600160a01b038316158015906113805750826001600160a01b0316816001600160a01b031614155b801561139357506113918184610d26565b155b156113bc5760405163a9fbf51f60e01b81526001600160a01b03841660048201526024016105b9565b81156114045783856001600160a01b0316826001600160a01b03167f8c5be1e5ebec7d5bd14f71427d1e84f3dd0314c0f7b2291e5b200ac8c7c3b92560405160405180910390a45b505b5050600090815260046020526040902080546001600160a01b0319166001600160a01b0392909216919091179055565b6114418383836115b0565b610902576001600160a01b03831661146f57604051637e27328960e01b8152600481018290526024016105b9565b60405163177e802f60e01b81526001600160a01b0383166004820152602481018290526044016105b9565b6114a48282610ada565b61058f5760405163e2517d3f60e01b81526001600160a01b0382166004820152602481018390526044016105b9565b6114dd8383611613565b6109023360008585856110cf565b60606114f682610d79565b50600061150e60408051602081019091526000815290565b9050600081511161152e5760405180602001604052806000815250611559565b8061153884611678565b604051602001611549929190611eca565b6040516020818303038152906040525b9392505050565b60006001600160e01b031982166380ac58cd60e01b148061159157506001600160e01b03198216635b5e139f60e01b145b806104c357506301ffc9a760e01b6001600160e01b03198316146104c3565b60006001600160a01b038316158015906113035750826001600160a01b0316846001600160a01b031614806115ea57506115ea8484610d26565b806113035750506000908152600460205260409020546001600160a01b03908116911614919050565b6001600160a01b03821661163d57604051633250574960e11b8152600060048201526024016105b9565b600061164b83836000610dbf565b90506001600160a01b03811615610902576040516339e3563760e11b8152600060048201526024016105b9565b606060006116858361170b565b600101905060008167ffffffffffffffff8111156116a5576116a5611914565b6040519080825280601f01601f1916602001820160405280156116cf576020820181803683370190505b5090508181016020015b600019016f181899199a1a9b1b9c1cb0b131b232b360811b600a86061a8153600a85049450846116d957509392505050565b60008072184f03e93ff9f4daa797ed6e38ed64bf6a1f0160401b831061174a5772184f03e93ff9f4daa797ed6e38ed64bf6a1f0160401b830492506040015b6d04ee2d6d415b85acef81000000008310611776576d04ee2d6d415b85acef8100000000830492506020015b662386f26fc10000831061179457662386f26fc10000830492506010015b6305f5e10083106117ac576305f5e100830492506008015b61271083106117c057612710830492506004015b606483106117d2576064830492506002015b600a83106104c35760010192915050565b6001600160e01b031981168114610ec257600080fd5b60006020828403121561180b57600080fd5b8135611559816117e3565b60005b83811015611831578181015183820152602001611819565b50506000910152565b60008151808452611852816020860160208601611816565b601f01601f19169290920160200192915050565b602081526000611559602083018461183a565b60006020828403121561188b57600080fd5b5035919050565b80356001600160a01b03811681146118a957600080fd5b919050565b600080604083850312156118c157600080fd5b6118ca83611892565b946020939093013593505050565b6000806000606084860312156118ed57600080fd5b6118f684611892565b925061190460208501611892565b9150604084013590509250925092565b634e487b7160e01b600052604160045260246000fd5b600067ffffffffffffffff8084111561194557611945611914565b604051601f8501601f19908116603f0116810190828211818310171561196d5761196d611914565b8160405280935085815286868601111561198657600080fd5b858560208301376000602087830101525050509392505050565b600082601f8301126119b157600080fd5b6115598383356020850161192a565b6000806000606084860312156119d557600080fd5b6119de84611892565b9250602084013567ffffffffffffffff808211156119fb57600080fd5b611a07878388016119a0565b93506040860135915080821115611a1d57600080fd5b50611a2a868287016119a0565b9150509250925092565b60008060408385031215611a4757600080fd5b50508035926020909101359150565b60008060408385031215611a6957600080fd5b82359150611a7960208401611892565b90509250929050565b600060208284031215611a9457600080fd5b61155982611892565b60c081526000611ab060c083018961183a565b87151560208401526001600160a01b03871660408401526060830186905260ff8516608084015282810360a0840152611ae9818561183a565b9998505050505050505050565b60008060408385031215611b0957600080fd5b611b1283611892565b915060208301358015158114611b2757600080fd5b809150509250929050565b60008060008060808587031215611b4857600080fd5b611b5185611892565b9350611b5f60208601611892565b925060408501359150606085013567ffffffffffffffff811115611b8257600080fd5b8501601f81018713611b9357600080fd5b611ba28782356020840161192a565b91505092959194509250565b600080600060608486031215611bc357600080fd5b83359250602084013560ff81168114611bdb57600080fd5b9150604084013567ffffffffffffffff811115611bf757600080fd5b611a2a868287016119a0565b600060208284031215611c1557600080fd5b813567ffffffffffffffff811115611c2c57600080fd5b611303848285016119a0565b60008060408385031215611c4b57600080fd5b611c5483611892565b9150611a7960208401611892565b600181811c90821680611c7657607f821691505b602082108103611c9657634e487b7160e01b600052602260045260246000fd5b50919050565b60008251611cae818460208701611816565b9190910192915050565b634e487b7160e01b600052601160045260246000fd5b600060018201611ce057611ce0611cb8565b5060010190565b601f82111561090257600081815260208120601f850160051c81016020861015611d0e5750805b601f850160051c820191505b818110156111f157828155600101611d1a565b815167ffffffffffffffff811115611d4757611d47611914565b611d5b81611d558454611c62565b84611ce7565b602080601f831160018114611d905760008415611d785750858301515b600019600386901b1c1916600185901b1785556111f1565b600085815260208120601f198616915b82811015611dbf57888601518255948401946001909101908401611da0565b5085821015611ddd5787850151600019600388901b60f8161c191681555b5050505050600190811b01905550565b604081526000611e00604083018561183a565b8281036020840152611e12818561183a565b95945050505050565b80820281158282048414176104c3576104c3611cb8565b600082611e4f57634e487b7160e01b600052601260045260246000fd5b500490565b60ff83168152604060208201526000611303604083018461183a565b6001600160a01b0385811682528416602082015260408101839052608060608201819052600090611ea39083018461183a565b9695505050505050565b600060208284031215611ebf57600080fd5b8151611559816117e3565b60008351611edc818460208801611816565b835190830190611ef0818360208801611816565b0194935050505056fea2646970667358221220f85ec94f14b8c89e36256246bea4b886f82eaf693f22909deb470b6539e05b5a64736f6c63430008140033",
  "linkReferences": {},
  "deployedLinkReferences": {}
}